:100000000C9439010C9456010C9456010C94560131
:100010000C9456010C9456010C9456010C94560104
:100020000C9456010C9456010C94321B0C94051C34
:100030000C94FB150C9456010C9456010C9456012B
:100040000C9456010C9456010C9456010C945601D4
:100050000C9456010C9473160C9456010C94560192
:100060000C9456010C9456010C9456010C945601B4
:100070000C9456010C9456010C9456010C945601A4
:100080000C9456010C9456010C9456010C94560194
:100090000C9456010C9456010C9456010C94560184
:1000A0000C9456010C9456010C9456011E0000004D
:1000B0001F000000000020000000210000000000E0
:1000C00000001A0008001500170018000C001200AC
:1000D00013002F00140016000700090000000D0097
:1000E0000E000F003300340000000000060019006D
:1000F0000A00110010000000000000001003500072
:1001000065007200690064006F0074000000220343
:10011000570065006900720064004C0069007400BB
:1001200074006C0065004B006500650062007300A0
:1001300000000403090409027800040100A0FA0980
:100140000400000103010100092111010001224402
:1001500000070581030800010904010001030000F4
:1001600000092111010001226D0007058203200012
:1001700001080B020202020100090402000102024E
:1001800001000524001001042402020524060203D4
:10019000070583030800FF09040300020A000000AA
:1001A000070505021000050705840210000512016D
:1001B0000002EF020108EDFE606001010102000192
:1001C00005010980A101850319012AB7001501263F
:1001D000B700950175108100C0050C0901A10185CA
:1001E0000419012AA002150126A0029501751081AB
:1001F00000C005010906A1018506050719E029E7E8
:10020000150025019508750181020507190029EFE0
:100210001500250195F075018102050819012905D0
:10022000950575019102950175039101C0050109BC
:1002300006A101050719E029E715002501950875B4
:100240000181029501750881010507190029FF1533
:100250000026FF009506750881000508190129058B
:100260001500250195057501910295017503910110
:10027000C00011241FBECFEFDAE0DEBFCDBF11E01A
:10028000A0E0B1E0E4E4F0E402C005900D92A03BF0
:10029000B107D9F722E0A0EBB1E001C01D92A93B64
:1002A000B207E1F70E946D110C94ED1F0C94000051
:1002B0000895811112C0643080F44A3070F4E42F44
:1002C000F0E08AE0689FE00DF11D1124EE0FFF1FA2
:1002D000E455FF4F85919491089581E090E0089551
:1002E0000E945901089581E0089581E008950E94D7
:1002F0007301089581E0089581E0089581E00895F3
:100300000E947E010895089508950E948301089532
:1003100008950895A6E0B0E0E0E9F1E00C945D1FD7
:1003200049835A839E833091B70189819A81311123
:100330001AC03E81311599F0211589F00E94D2072B
:10034000182F682F89819A810E94AE0769817A816E
:10035000812F0E94E40E2696E3E00C94791F0E9400
:10036000C007182FF3CF0E94D20769817A81F1CF9D
:10037000FC01262F408151816281738184819581A6
:100380000E948A010895CF93DF93D82FC92F61E08F
:100390000E94B8016D2F7C2F0E947501811549F0D4
:1003A00061E08D2F9C2F0E94B8016D2F7C2F0E9441
:1003B0007701DF91CF9108950F931F93CF93DF9330
:1003C000D82FC92F60E00E94B8018C016D2F7C2FBF
:1003D0000E9484016D2F7C2FC8010E948501DF914E
:1003E000CF911F910F91089521E030E0A90102C043
:1003F000440F551F8A95E2F7CA010E94D00608955E
:10040000CF93C82F81E090E00C2E02C0880F991F77
:100410000A94E2F70E942F0C8C2F0E94F401CF91D6
:10042000089581E0089581E008950E9411020895E1
:10043000CF93C82F0E947A068C2F0E9413028C2F14
:100440000E9415022FEF84E39CE0215080409040F1
:10045000E1F700C00000CF91089581E00E941802EA
:100460000E949716089580E00E9418020E94A81624
:1004700008950F931F93CF93DF938C0161E00E9447
:10048000B801EC01B8010E947C01811509F449C052
:10049000B801CE010E948001811509F442C0B80163
:1004A000CE010E94C2118115E1F1B801CE010E9476
:1004B000A7138115B1F1B801CE010E946812811510
:1004C00081F1B801CE010E943D12811551F1B801B0
:1004D000CE010E94E70F811521F1F8018581811578
:1004E00081F0CA35FCE7DF0739F178F4C130ECE779
:1004F000DE07F9F0C330FCE7DF07C9F0C115DC47C0
:1005000071F0C8010E947A010DC0CB35ECE7DE071F
:10051000B1F0CC35DC47A9F70E94010CF2CF0E9464
:100520002D0280E0DF91CF911F910F9108950E94DD
:10053000120C0E943302F5CF0E940A0CE2CF0E94F7
:100540000E0CDFCF0E9488010E94CD150E94C602CA
:1005500008950E94CA020E9489010E94D21508953E
:1005600081E008950895CF93DF93D82F0E94B002C1
:10057000C82F811519F08D2F0E94B2028C2FDF91A8
:10058000CF91089508950E94B302089580E00E94DB
:10059000C30208950E94EE130E94C3020895CF93F0
:1005A0000E94EE13C82F8091B2018C1779F0C0938E
:1005B000B2010E9467166093B3017093B4018093F7
:1005C000B5019093B6018C2F0E94C302CF9108957C
:1005D000ADE0B0E0EEEEF2E00C945E1F4887598784
:1005E0006A877B878C879D8791110E940D0B1F82E4
:1005F00086E0FE013896DE01119601900D928A95F3
:10060000E1F78D8181110DC029813A814B815C8197
:100610006D817E818F810E94570A2D96E2E00C94B5
:100620007A1FCE0101960E94C3018111EDCFF5CF53
:10063000FC018481813021F4808191810E94040831
:100640000895CF93C82F8115C9F08238C9F40E944C
:10065000FB1381FD13C089E30E9415150E94A30BB3
:100660002FEF37EE83E0215030408040E1F700C0AB
:10067000000089E30E942F150E94A30BCF910895DB
:100680008338A1F40E94FB1380FDF8CF83E50E941C
:1006900015150E94A30B9FEF21EE34E091502040EE
:1006A0003040E1F700C0000083E5E4CF8438A1F4D6
:1006B0000E94FB1382FDE2CF87E40E9415150E9481
:1006C000A30B8FEF91EE24E0815090402040E1F7A2
:1006D00000C0000087E4CECF8CEF8C0F813A70F41D
:1006E0008C2F0E948614811529F08C2F0E942F15C3
:1006F0000E94A30B8C2F0E941515BECF80E28C0F99
:10070000883048F4C77081E001C0880FCA95EAF7C5
:100710000E94EE0AB1CF8BE58C0F833038F42C2F7A
:100720002452330BC9010E941814A8CFC85ACB31E8
:1007300008F0A4CFEC2FF0E0EE0FFF1FEB5CFE4FB4
:10074000808191810E943E1499CF811509F44DC09A
:10075000823879F40E94FB1381FF47C089E30E942D
:1007600015150E94A30B89E30E942F150E94A30B6D
:100770000895833859F40E94FB1380FF36C083E547
:100780000E9415150E94A30B83E5EECF843859F41F
:100790000E94FB1382FF29C087E40E9415150E9466
:1007A000A30B87E4E1CF9CEF980F913AE8F290E237
:1007B000980F983050F4877091E001C0990F8A9596
:1007C000EAF7892F0E94F40AD1CF9BE5980F933066
:1007D00028F480E090E00E9418140895885A8B3124
:1007E00020F480E090E00E943E1408950F931F9340
:1007F000CF93C82F8B010E9421030115110539F4F5
:100800008C2F0E94A503CF911F910F9108958FE91E
:100810009FE00197F1F700C0000001501109EDCFF2
:1008200060E570E0893311F060E070E00E94F6034B
:100830000895811521F00E94EE0A0E94A30B0895ED
:10084000811521F00E94F40A0E94A30B0895A0E0F4
:10085000B0E0EDE2F4E00C94581F6C01D62FC72FE6
:10086000FC010581F680F2948FE0F8220E94E30AF1
:10087000E82E8115F9F0E02E0115E1F08C2F807F34
:10088000803461F080E28D0F883098F18C2F807E6B
:10089000803221F4D23068F1F11459F1809197023D
:1008A00082FF27C082E00E94D40B0E94E30A91E0FD
:1008B000E82EE9268C2F82958F70883009F4E3C0EA
:1008C00090F58430C0F41C2F1F708230E8F1C07F97
:1008D000C03211F01295107FD11509F464C0D130E7
:1008E00009F494C0011509F4A0C0F11409F477C00B
:1008F0003EC0E12CDFCF843009F4A8C0E11409F434
:10090000F5C00E94DF0A80FDF1C0F60115820E9449
:10091000D90A0E940C07C6010E9445060E94D90A06
:100920000E941C07E3C0893009F429C18A5F8F70D7
:10093000823020F7D23F09F033C18C2F8F71011123
:100940002CC10E940C07CEC0C03110F01295107F50
:10095000011599F0111559F080E28D0F883010F0D3
:10096000D11107C0812F0E94EE0A0E94A30B8D2F88
:1009700028C0812F0E94FF0AF8CF8D2F0E94A50367
:10098000111509F4BBCF80E28D0F883010F0D11122
:1009900004C0812F0E94F40A03C0812F0E94050B1E
:1009A0000E94A30BABCF8091970282FD14C001156A
:1009B00059F0111529F0812F0E94EE0A0E94A30B15
:1009C00080E00E9421039ACF80E00E94A5031115C8
:1009D00009F494CFDECF011569F0F11004C0812F26
:1009E0000E9419048BCFF1E0FF1288CF812F0E9463
:1009F000250B84CFF11082CF812F0E942004812FFC
:100A00000E94310B812F0E94140B78CF011529F021
:100A100026E0F21608F072CFE2CF85E0F81608F073
:100A20006DCF812F0E94200469CFF114D1F3D93307
:100A300049F49FEFE7EEF3E09150E040F040E1F73A
:100A400000C000008D2F0E94A50358CF8C2F8695E3
:100A500086958370811569F0813009F04FCF8D2F15
:100A60009C2F9370011102C080E090E00E943E1420
:100A700045CF8D2F9C2F9370011102C080E090E034
:100A80000E9418143BCF8C2F837081113DC001113F
:100A900029C04D2F429546954770440F440F2D2F86
:100AA0002F7030E0042E02C0220F331F0A94E2F7A9
:100AB00080E090E0D4FF09C08FE090E002C0880F92
:100AC000991F4A95E2F780959095C695C695C37093
:100AD000822B932BC23091F0C33099F0C13059F082
:100AE0000E94DC060E94EE130E94C302CDB7DEB75F
:100AF000E8E00C94741F0E94D306F4CF0E94E50630
:100B0000F1CF0E94D006EECF011561F1C0FFEACF10
:100B10004D2F429546954770440F440F2D2F2F704F
:100B200030E0042E02C0220F331F0A94E2F780E067
:100B300090E0D4FF09C08FE090E002C0880F991FB9
:100B40004A95E2F780959095C695C695C370822B1D
:100B5000932BC23071F0C33079F0C13039F00E946C
:100B60004707C0CF823008F4BDCFD2CF0E943E07E6
:100B7000B9CF0E945007B6CF0E94F406B3CFCF7012
:100B8000011539F08C2F0E940C078D2F0E9419043B
:100B9000A9CF8D2F0E9420048C2F0E941C07A2CF6A
:100BA00068F4D03FC1F0D13F89F0011509F441C08C
:100BB000F114E1F18D2F0E94210394CFD33FC9F0AE
:100BC000D43F99F78091970282FD1DC08C2F8F71C1
:100BD000011519F3B6CE011549F025E0F21608F01B
:100BE00081CF8C2F8F710E942E077CCF86E0F81664
:100BF000F6CF011529F08C2F8F710E94000772CF5C
:100C00000E94FB066FCF011531F063E08C2F8F71CE
:100C10000E94B50B67CF81E00E94D40B92E0F916D9
:100C200008F460CF82E00E94D40B5CCF8C2F8F71D0
:100C300088CEF11479F0D93349F4EFEFF7EE23E0E1
:100C4000E150F0402040E1F700C000008D2F0E94ED
:100C5000A50348CF8C2F8F71A0CF0F931F93CF93F5
:100C6000DF93EC01688179818D810E9411088C01EC
:100C70000E9459070E94CF06B801CE010E942704A6
:100C8000DF91CF911F910F910895CF93DF93EC01E6
:100C90008C81811599F0CE010E943902811111C019
:100CA0000E94E30A811551F08D81811539F0809100
:100CB000970282FF03C082E00E94D40BDF91CF91A4
:100CC0000895CE010E942D06CE010E94DC01F6CFD0
:100CD00080E090E00E94181480E090E00E943E14B2
:100CE0000E940D0B0E94A30B08950E9449150E94BB
:100CF000680608950E94FC0A0E9475060895282F30
:100D000092959F70963099F060F4925F9F70923048
:100D100030F4203FB1F038F481E0283E38F080E034
:100D200008959A5FF3CF81E0243FC9F7089591E0D9
:100D3000813F09F090E081E0283E08F080E0892BB7
:100D4000089581E00895FC018481811539F0808146
:100D500091810E9404080E947F06089580E0089512
:100D6000A6E0B0E0E6EBF6E00C945E1F2696E2E02B
:100D70000C947A1FA7E0B0E0E0ECF6E00C945E1F64
:100D80002796E2E00C947A1F08950E94C406089505
:100D90000E94C5069093CF018093CE0108950895D7
:100DA0000E94C80608952091CE013091CF01822B78
:100DB000932B0E94C80608952091CE013091CF0157
:100DC000822393230E94C80608952091CE0130917A
:100DD000CF01822793270E94C80608950E94C40667
:100DE00008950E94EE0608950E94F1069093CD01A9
:100DF0008093CC01089580E090E00E94F40608956D
:100E000021E030E0A90102C0440F551F8A95E2F7A6
:100E1000CA010E94F406089521E030E002C0220FCA
:100E2000331F8A95E2F78091CC019091CD01822BFE
:100E3000932B0E94F406089521E030E002C0220FB7
:100E4000331F8A95E2F7209530958091CC019091DF
:100E5000CD01822393230E94F406089521E030E01F
:100E600002C0220F331F8A95E2F78091CC01909146
:100E7000CD01822793270E94F40608952091CC018A
:100E80003091CD01822B932B0E94F406089520917E
:100E9000CC013091CD01822393230E94F406089562
:100EA0002091CC013091CD01822793270E94F40636
:100EB000089508959B01677091E001C0990F6A95AC
:100EC000EAF763E0369527956A95E1F7220F331F1D
:100ED000220F331FFA01E20FF31F40E050E0682FAA
:100EE00070E08191DF019B01042E02C036952795A9
:100EF0000A94E2F7217021952827292328272E9389
:100F00004F5F5F4F4430510561F708959C01982F62
:100F1000977083E0369527958A95E1F7220F331F66
:100F2000220F331FFB01E20FF31F40E050E080E08F
:100F3000219130E0092E02C0369527950A94E2F7F8
:100F400021703327042E01C0220F0A94EAF7822B66
:100F50004F5F5F4F4430510559F70895282F862F72
:100F6000943068F42A3058F4622F70E02AE0929F9F
:100F7000600D711D112448EB51E00E945A0708953D
:100F8000292F943068F48A3058F490E068EB71E0CF
:100F90003AE0239F800D911D11240E948607089539
:100FA00080E00895A0E0B0E0E8EDF7E00C94571F72
:100FB0008C01E090CC01F090CD018091CE01909118
:100FC000CF01E82AF92ACFE0D0E0CC24C394D12C79
:100FD000C6010C2E02C0880F991F0A94E2F78E21D9
:100FE0009F21892B49F4219798F7B12C8B2DCDB7F0
:100FF000DEB7E9E00C94731FBC2EB8018C2F0E9461
:10100000F00E019781F3F2CFCF93DF93D82FC92F42
:101010000E94D2076D2F7C2F0E94F00EDF91CF919E
:1010200008951F93CF93DF93162FD72F9091B70179
:10103000911541F0862F972F0E940408DF91CF91E0
:101040001F910895811581F0862F972F0E94D20756
:10105000C82F682F812F9D2F0E94AE07612F7D2FF3
:101060008C2F0E94F00EEACF862F972F0E94C00788
:10107000C82FF4CF0F931F93CF93E091D001C7E017
:101080008091D1018E1304C0CF911F910F910895CB
:101090000E2F10E0CE9FF0011124EE52FE4F208162
:1010A0003181428153816481758186810E94BA06B3
:1010B000F8013196E770E4CF20910A0230910B02DB
:1010C00040910C0250910D0260910E0270910F023E
:1010D000809110020E94BA0608958091100280311A
:1010E00078F480910F02811559F0E091D0012091A0
:1010F000D10130910B0240910A0257E02E1301C03A
:1011000008956E2F70E05E9FF0011124DF01AE5252
:10111000BE4F14968C911497811561F111968C91A4
:101120001197831327C08C91841324C015968C913A
:10113000159781111FC012968D919C91A0910C0260
:10114000B0910D028A1B9B0B883C910598F480910D
:1011500010028F70806180931002E852FE4F8081F0
:101160008F70806180838AE092E00E9445060E9431
:101170003A080895FB013196E770C0CFE091D001A5
:101180009091D10127E0E91302C080E00895AE2FCD
:10119000B0E02E9FF0011124EE52FE4F3181361344
:1011A00006C03081381303C03581341304C0FD01FB
:1011B0003196E770E8CF81E008958F929F92AF92C9
:1011C000BF92DF92EF92FF920F931F93CF93DF9323
:1011D000CDB7DEB72D970FB6F894DEBF0FBECDBFEB
:1011E0008C0186E0F801DE01189601900D928A9537
:1011F000E1F7F801F58084819AE0892E92E0992E3A
:1012000090910E0291111BC0811509F4FFC0F114D9
:1012100009F440C1C8010E94A306811509F43AC12E
:1012200087E0F801D40101900D928A95E1F7C4019D
:101230000E9418030E946D080E945C08E7C0E080CD
:10124000A280B380D0900F0220910C0230910D0249
:10125000A501421B530BD11409F4DBC0483C5105D6
:1012600008F0A6C0811509F4D1C090910B029180BD
:1012700080911002803108F06BC0991228C09091C3
:101280000A029E1124C0F1105DC08F7080618093AE
:1012900010020E945C088AE092E00E94450680915C
:1012A0001002F8018683F12C8F2D2D960FB6F8943D
:1012B000DEBF0FBECDBFDF91CF911F910F91FF9089
:1012C000EF90DF90BF90AF909F908F900895F110B6
:1012D00039C040E0692D8E2D0E94BE0840E0692D86
:1012E0008E2D0E94BE08F82E8111DDCF888599854C
:1012F0000E940408292F22952F70903450F49F707B
:10130000223080F0911599F0F8019681903178F4AF
:10131000CBCF2A5F2F70223078F0C8010E9445069B
:10132000FD2CC2CF911519F0811509F4BDCF805E57
:10133000883008F4B9CFF1CF803F08F4B5CF815F92
:101340008330F7CF80911002816080931002ABCF81
:10135000991207C090910A029E1103C0F11409F47A
:1013600079C0C8010E94A306811509F493C0F11445
:1013700009F490C080911002803288F020910A0216
:1013800030910B023A832983BC82AB8290910E028A
:101390009D831E828F83CE0101960E94450687E0C1
:1013A000F801AAE0B2E001900D928A95E1F742CFF0
:1013B000909110029031A0F4488559856A857B850B
:1013C0008C859D850E94B0068AE092E00E944506C9
:1013D00087E0F40111928A95E9F70E945C0863CFD7
:1013E0008115A1F020910B0281812813BACF809141
:1013F0000A028E11B6CFF110B4CF9683C8010E94B5
:10140000450687E0F40111928A95E9F7FF24F394E9
:101410004BCF483C510508F041C08115B9F3F11498
:10142000C9F190910B02818198132AC080910A0220
:101430008E1126C08091100280FD19C08031B8F055
:101440008683807F803F39F08681982F907F905FE0
:101450008F70892B8683C8010E94450687E0F801BA
:10146000AAE0B2E001900D928A95E1F7E5CE87E01F
:10147000F801AAE0B2E001900D928A95E1F7C6CF9B
:10148000C8010E94A30681118ACF80911002816059
:1014900080931002C8010E944506B8CF488559853F
:1014A0006A857B858C859D850E94B00691CFAEE0D4
:1014B000B0E0EDE5FAE00C945D1F288739874A8794
:1014C0005B876C877D878E87CE0108960E94DD083A
:1014D0006C858115A9F0611541F0288539854A850B
:1014E0005B857D858E850E94BA0617E08091D001CC
:1014F0009091D10189133AC02E96E3E00C94791FA4
:1015000087E0FE013896DE01119601900D928A95D2
:10151000E1F7611551F3A091D1018A2F90E0019676
:10152000877099272091D0012817190689F097E034
:101530009A9FD0011124AE52BE4FFE013196019008
:101540000D929A95E1F78093D1010E943A08CDCF90
:101550000E947A061092D1011092D00187E0EAE051
:10156000F2E0DF011D928A95E9F7BFCF189FC00115
:1015700011248E529E4F0E94DD08811509F4BCCFC4
:10158000E091D0011E9FF0011124EE52FE4F208108
:101590003181428153816481758186810E94BA06BE
:1015A0008091D00190E00196877099278093D001B7
:1015B0009DCF809139028695869586950895809174
:1015C00039028770089590913902977081E09111E6
:1015D00001C080E0089580916502089590916502B0
:1015E000982B909365020895982F909580916502AD
:1015F0008923809365020895109265020895909161
:101600006402982B909364020895982F909580918E
:1016100064028923809364020895109264020895FD
:1016200008950E94100B089590913A02292F2823C3
:10163000211531F08095892380933A020E94110B85
:10164000089508950E94210B089590913B02292F3F
:101650002823281729F0982B90933B020E94220BF5
:10166000089590913B02292F2823211531F0809570
:10167000892380933B020E94220B089580913B02B4
:10168000811529F010923B0280E00E94220B089500
:10169000CF93C091650280916402C82B80913B0278
:1016A000811531F0C82B0E94641481110E943E0BF9
:1016B0008C2FCF910895CF93DF93C0910201D091E9
:1016C00003010E94480B8883C0910201D09103015D
:1016D00048E050E061E372E0CE010E94851F892B53
:1016E00059F088E0FE01A1E3B2E001900D928A95E5
:1016F000E1F7CE010E94FE13DF91CF910895CF93C1
:10170000DF93C0910001D09101010E94480B8983B1
:10171000C0910001D091010140E250E061E172E02E
:10172000CE010E94851F892B59F080E2FE01A1E1C4
:10173000B2E001900D928A95E1F7CE010E94091462
:10174000DF91CF9108950E94A815813039F48091DE
:10175000960287FF03C00E947F0B08950E945B0BD7
:10176000089508950E94B10B0895962F2091970235
:1017700022FF11C0682F660F660F660F692B6093FA
:1017800039020E940C0780913902869586958695CC
:101790000E94B20B08950E940C070895109239021E
:1017A00080E00E94B20B08959091390280958923C0
:1017B00080933902282F277021110DC0891759F005
:1017C0009091970292FF07C08695869586950E9414
:1017D0001C070E94CE0B08959091970292FB22273E
:1017E00020F9281769F080FB92F990939702809175
:1017F0009602909197020E943A0C82E00E94D40BCC
:10180000089580919702002482FF0394802D0E9406
:10181000EC0B089581E00E94EC0B089580E00E949B
:10182000EC0B08956FEF7FEF80E090E00E94D71FF0
:10183000089580E090E00E94A31F9C0181E0253E76
:101840003E4F09F080E0089582E090E00E949B1FE7
:10185000089583E090E00E949B1F90E00895682F18
:1018600083E090E00E94B91F089584E090E00E9418
:10187000A31F0895BC0184E090E00E94D71F089543
:10188000AB01BC018FE090E00E94CB1F0895AB013B
:10189000BC0183E190E00E94CB1F089560E070E0FE
:1018A000CB010E94470C089560E070E0CB010E94DC
:1018B000400C0E944E0C0895A8E0B0E0E2E6FCE087
:1018C0000C945E1F65EE7EEF80E090E00E94D71FD3
:1018D00060E082E090E00E94B91F81E090E0909388
:1018E000CF018093CE010E942F0C60E074E184E070
:1018F00090E00E94D71F60E086E090E00E94B91F50
:1019000060E087E090E00E94B91F40E050E0BA013B
:1019100088E090E00E94CB1F60E083E290E00E94AC
:10192000B91F60E08CE090E00E94B91F60E08DE09C
:1019300090E00E94B91F19821A821B821C821D82AC
:101940001E821F82188648E050E067E170E0CE01F9
:1019500001960E94A91F40E050E0BA018FE190E09B
:101960000E94CB1F0E94540C2896E2E00C947A1F30
:101970000E945C0C0895682F8EE090E00E94B91FD1
:101980000895A6E0B0E0E7ECFCE00C945C1F0E9438
:101990005B168C0180916602909167028017910717
:1019A00079F019821A820E945B16BC0149815A8122
:1019B00080E090E00E94E8021093670200936602C4
:1019C0002696E4E00C94781F0E94671660937402D8
:1019D0007093750280937602909377026093700201
:1019E0007093710280937202909373020895089528
:1019F00008950E94F70C089508950E94FC0C0E941F
:101A0000F90C089508950E94020D089508950E940A
:101A1000060D0E94030D089585EE9FE00E9482113D
:101A20000E94F80C0E94FD0C089581E0089581E069
:101A300008950E94150D08950895089508950E942F
:101A40001C0D0E941D0D0E941E0D08950E94190C70
:101A5000811102C00E94B80C0E94240C809378026D
:101A60000E94350C90939702809396020E943A123E
:101A70000E94290C0E94D0068091CC019091CD014A
:101A80000E94F10608950E9452160E94BC100E9406
:101A9000260D0E94C202E6E9F2E080818068808320
:101AA00080919602909197020E943A0C0E940D1824
:101AB0000E94070D0895A6E0B0E0E1E6FDE00C9479
:101AC000521F0E94170D811108C00E94C10C0E9474
:101AD000CF022696EEE00C946E1F0E94D21028E6EC
:101AE000822E22E0922E540110E0F5016190719057
:101AF0005F01812F0E9400106C011F5F143009F4F8
:101B00004AC06816790689F38091780281FD0E94A7
:101B100009100E94190D782E10E066246394812F1D
:101B20000E9400107C01F401A190B1904F018A1530
:101B30009B0559F1A826BF2400E0CC24C394D12CE6
:101B4000C5018C219D21892BC1F07114B1F009834D
:101B50001A830E945B169C838B836D8221E0C701F0
:101B60008C219D21892B09F420E049815A816B81C8
:101B70007C818D81922F0E94E8020F5FCC0CDD1CCE
:101B80000A30F1F6F401F292E2921F5F143039F656
:101B90000E94E40C9CCF6816790609F0B5CF95CF6A
:101BA0001F93CF93DF930E94F50EEC01811522E580
:101BB000920708F05DC0811540E5940708F0DBC08E
:101BC000803E910528F58D3C910508F0ACC0883A1F
:101BD000910578F4853A910508F0A2C0813091050D
:101BE00009F441C00497813A9105E8F1C0E0D0E0E2
:101BF0003AC0885A91094B97C8F7C85AD0E0CC0F21
:101C0000DD1FC559DE4F0990D881C02DD4642BC08B
:101C1000811550E49507F8F4C11580E2D80708F063
:101C2000C0C0C83ED105F8F0CE019A9581159F41FC
:101C3000E8F68D2F0E94960F182FCE0199270E944B
:101C4000F50E212F30E0322F2227E901CC27DF715A
:101C5000C82BD92B08C099270E94F50ECC27DF701E
:101C6000C82BD92BD06ACE01DF91CF911F91089557
:101C7000803842E59407C8F5803652E5950708F0AC
:101C80005BC0C03482E5D807D0F4C03292E5D907F2
:101C900008F04BC08C2F8695869520E2829FC0016C
:101CA0001124C37021E030E0A90102C0440F551F88
:101CB000CA95E2F7EA01C82BD92BDD68D4CF8C2F67
:101CC00086958695877050E2859FC0011124C37068
:101CD00021E030E0A90102C0440F551FCA95E2F788
:101CE000EA01C82BD92BDC68BECF803C52E59507B2
:101CF00058F48F71C03AD245A0F590E0982F88270C
:101D0000EC01C46FD06AAFCF805C9245809708F039
:101D10006DCFDC2FCC27CC27DF71C06FD06AA3CF6B
:101D2000A497D064A0CFD0659ECFCF71D0E0DC2F38
:101D3000CC27C16FD06A97CF86958695877020E2B1
:101D4000829FC0011124C37021E030E0A90102C0CC
:101D5000440F551FCA95E2F7EA01C82BD92BDA6860
:101D600082CF0E94960FC82FD0E0DC2FCC27CC2743
:101D7000DF71D06278CF8F710E94960F53E0CC0F45
:101D8000DD1F5A95E1F7CC27DF70282F30E084FF64
:101D900004C050E1859F90011124C22BD32BD06940
:101DA00062CF8D2F8F710E94960F182FCE01992729
:101DB0000E94F50E212F30E0322F222722273F717B
:101DC000282B392BE901D5CF462F672F743028F403
:101DD0004A3018F40E947001089580E090E0089560
:101DE0000E94E40E0E94D00D08959C01803E910552
:101DF00009F448C0D8F48133910509F47DC048F452
:101E00008932910509F46DC08A9709F47CC0C90133
:101E100008958933910551F18238910539F1C597BB
:101E2000B1F78091960285FFF2CF29C0843E9105DB
:101E300009F447C048F4823E910599F1833E91052B
:101E4000A9F121EE30E0E3CF863E910509F444C0CC
:101E5000873E9105E1F68091960283FD61C09091E5
:101E6000970291FF2BC024EE30E0D1CF80919602F3
:101E70008370811152C08091970283FFC8CF29E2FD
:101E800030E0C5CF8091960280FD33C090919702DB
:101E900090FFBDCF23EE30E084FFB9CF20E030E0EB
:101EA000B6CF8091960282FDF5CFB1CF8091960298
:101EB00082FD30C09091970290FD2FC084FFA7CF84
:101EC000EDCF8091970281FFA2CF8091960227EEFD
:101ED00030E084FDE3CF9BCF8091960283FDF7CF66
:101EE00096CF8091960285FD1EC08091970283FF58
:101EF0008ECF29E330E08BCF8091960286FF87CF8B
:101F00002AE230E084CF8091960286FF80CF21E3E1
:101F100030E07DCF22EE30E07ACF20EE30E077CF98
:101F200026EE30E074CF25E330E071CF9091960239
:101F300092FF10C041E0282F2471243009F040E0C6
:101F400031E0282F2871283009F030E0431711F0D4
:101F50002CE0822793FF10C041E0282F2471243108
:101F600009F040E031E0282F2871283109F030E0F5
:101F7000431711F02CE082273091970230FF10C0F8
:101F800051E0282F2171213009F050E041E0282F45
:101F90002871283009F040E0541711F029E0822719
:101FA00031FF10C041E0282F2171213109F040E0BC
:101FB00031E0282F2871283109F030E0431711F063
:101FC00029E0822794FD877E089580E00895CF93CD
:101FD0009C01FB01805E9245C1E0809738F4C58189
:101FE000C11104C0822F8F710E9400028C2FCF91EB
:101FF000089508950E94F90F08950E9458010895C8
:10200000E82FF0E0EE0FFF1FE056FD4F8081918139
:102010000895089580EA8A95F1F7089500C008951B
:102020000E940A100895F894E82FE295EF70F0E00E
:1020300041A18F7021E030E0B90102C0660F771F27
:102040008A95E2F7CB01962F9095942391A392A1C4
:10205000892B82A378940895CF93DF93C1EAD1E0CE
:1020600089918F3F11F00E94131081E0CB3AD8077D
:10207000B9F784EF0E94131085EF0E94131086EFCA
:102080000E94131087EF0E941310DF91CF910895E3
:10209000AF92BF92DF92EF92FF920F931F93CF9375
:1020A000DF93D82EE92EF62E8A01C62FD0E0CF5529
:1020B000DE4F88818F3F09F452C0F894E82FE295F3
:1020C000EF70F0E091A18F7021E030E001C0220FAD
:1020D0008A95EAF7892F822B81A382A12095282354
:1020E00022A378940E940E108BEAA82E81E0B82ECD
:1020F000ED2DFE2DAF01485F5F4FE12CB8016095DB
:102100007095D501DD905D0121913191BFEFDB1616
:1021100081F18D2D82958F70805E90E0DC018C9135
:1021200090E0BD2DBF7002C095958795BA95E2F7F6
:1021300080FD1FC0202B312BEE24E394CF010297AA
:10214000DC012D933C934E175F07D9F688818F3FB2
:1021500011F00E9413106E2D8F2D0E941010DF9130
:10216000CF911F910F91FF90EF90DF90BF90AF90B4
:10217000089526233723E2CF0E942C1088E0E0EA5E
:10218000F2E0DF01982F1D929A95E9F7E8E9F2E075
:10219000DF011D928A95E9F784E00E9428110E94D0
:1021A000FA0F0895CF92DF92FF920F931F93CF9370
:1021B000DF93CDB7DEB728970FB6F894DEBF0FBE1A
:1021C000CDBFFE01319688E0DF011D928A95E9F7C7
:1021D00010E0CC24C394D12CFE2E0F2FA601612F2A
:1021E0008F2D902F0E9448101F5FCC0CDD1C1A30E1
:1021F000A9F748E050E06F2D702F88E992E00E9427
:10220000851F21E0892BD1F420E044E060EA72E0F0
:1022100088E992E00E942911182F0E94FD0F812F5A
:1022200028960FB6F894DEBF0FBECDBFDF91CF91D9
:102230001F910F91FF90DF90CF90089588E0EF2DD0
:10224000F02FA8E9B2E001900D928A95E1F7DDCF79
:102250000895A0E0B0E0EFE2F1E10C94581FD82E11
:10226000E92EF62ED72F042FC22F211579F081E009
:1022700080937B020E945B1690937A02809379028E
:1022800080E0CDB7DEB7E8E00C94741FC0907B020D
:10229000C114B1F38091790290917A020E94EA15FB
:1022A000059770F310E0000F111FA8016D2D7E2D12
:1022B0008F2D9D2F0E94851F892B41F0A8016D2D28
:1022C0007E2D8F2D9D2F0E94921FCC2D10927B0270
:1022D0008C2FD7CF0E945B0D08950E94F4150E94A9
:1022E0006A180E940C0D0E9484180E94430D0E94DF
:1022F00091180E9496180E946A110E94B0180E94BC
:102300001F0DF7CF9093B1018093B0010895CF9343
:10231000DF9380917D02806880937D02CDE7D2E0DB
:1023200089910E942D1882E0C338D807C9F7DF9140
:10233000CF910895482F67E00E943C1F282F30E07E
:10234000F901E358FD4FC90153E0880F991F5A95D1
:10235000E1F7281B390B240F311D86E090E0821B2A
:10236000930B21E030E001C0220F8A95EAF78081CB
:10237000822B808380E0089581E0089581E00895B4
:1023800081E00895EF92FF920F931F93CF93DF9315
:10239000EC017B018C01005C14470034110508F04E
:1023A0004CC0DB0114968C91811509F446C0CE0116
:1023B0000E94C0118115B9F00A321105A0F40091F4
:1023C0007C02F70185818115A1F00F5F00937C02EB
:1023D0008C2F805C0E949A112DE732E040E0B7011B
:1023E000CE010E94BE1180E0CDB7DEB7E6E00C94CE
:1023F000761F015000937C022DE732E040E0B701E8
:10240000CE010E94BE11811571F380917C021816D5
:1024100054F310927C026DE772E080E00E94BC11E0
:10242000811108C0EDE7F2E086E0DF011D928A9598
:10243000E9F7D9CF0E948711F5CF81E0D5CF0E946F
:10244000120C089580E00E940010817008950E948F
:10245000D2108FE39CE90197F1F700C000000E94C1
:10246000D2100E942212811521F00E941F120E9498
:10247000971608950E9427120895CF93DF93EB01DA
:1024800086319C4719F50E94EB0A9D819115A1F0B8
:102490008A7A91E0811101C090E0909383028115C6
:1024A00049F085E30E9415150E94A30B80E0DF919F
:1024B000CF91089589E2F6CF80918302811521F0B2
:1024C00085E30E942F15F0CF89E2FBCF81E0EFCFAB
:1024D000CF93DF93EC01FB018581811509F4CFC017
:1024E0009E0130572332310508F0AFC00E94350CF1
:1024F0009093970280939602FE01E150F047E232FA
:10250000F10520F4E151F04E0C94481F80919602A1
:1025100081608093960290C080919702886080933A
:1025200097028AC0809196028260F3CF80919602D2
:102530008460EFCF809196028860EBCF8091970204
:102540008160EDCF809197028260E9CF8091960201
:102550008061DFCF809196028062DBCF809196020E
:102560008064D7CF0E947A06809196028068D1CF8E
:10257000809196028C60CDCF809197028360CFCFFF
:10258000809196028E7FC5CF80919702877FC7CFBB
:10259000809196028D7FBDCF809196028B7FB9CFBF
:1025A00080919602877FB5CF809197028E7FB7CFBB
:1025B000809197028D7FB3CF809196028F7EA9CFB5
:1025C000809196028F7DA5CF809196028F7BA1CFBF
:1025D0000E947A06809196028F779BCF8091960217
:1025E000837F97CF809197028C7F99CF80919602BD
:1025F000992782FF939590FB82F990FB83F989CF0D
:1026000080919702982F909590FB80F990FB81F92B
:1026100086CF90919602892F8F7B96FF806479CF29
:102620000E947A0690919602892F97FB87F980582D
:1026300070CF81E00E94BB0C80919602909197022E
:102640000E943A0C0E947A0680E0DF91CF910895B3
:1026500080E0F0CF90919602892F8F7E94FF806169
:1026600058CF90919602892F8E7F90FF816051CF35
:1026700090919702892F877F93FF886050CF81E0E8
:10268000E4CF0F931F93CF93DF93C42FD22FFC017E
:1026900085818115C9F0409386020E945B16909354
:1026A00085028093840280E28C0F883040F4C770EA
:1026B00081E001C0880FCA95EAF70E941904DF91F2
:1026C000CF911F910F91089510918602141333C07A
:1026D00080918402909185020E94EA15883C9105C0
:1026E00050F5C0E2CD0F1D17C1F080E2810F883098
:1026F00040F4177081E001C0880F1A95EAF70E9434
:102700002004C83050F491E08D2F877001C0990FDC
:102710008A95EAF7892F0E941904802F0E941004DD
:10272000C83068F6D77081E001C0880FDA95EAF703
:102730000E942004C4CF80E28C0F883008F0BFCF05
:10274000C77081E001C0880FCA95EAF7F1CF0F93F7
:10275000DB01FC01E851FC47E730F10598F5EF5E3D
:10276000FF4D0C94481F06E221EE41EE6AE17CE742
:10277000CD010E94411380E00F91089507E225EEFC
:1027800045EE6BE17CE7F4CF06E221EE40EE68E136
:102790007CE7EECF07E225EE44EE69E17CE7E8CF87
:1027A00006E221EE42EE6CE17CE7E2CF07E225EEA5
:1027B00046EE6DE17CE7DCCF08E221E045EE6EE11C
:1027C0007CE7D6CF15968C9181111092860281E01C
:1027D000D3CF90938C0280938B020895E0918B026B
:1027E000F0918C02309729F00190F081E02D09954D
:1027F000089580E008950E94EE130895E0918B0201
:10280000F0918C02309721F00280F381E02D099540
:102810000895DC01E0918B02F0918C02309739F041
:1028200086E08C930480F581E02DCD010995089513
:10283000A3E0B0E0EEE1F4E10C945E1F9C01809116
:10284000890290918A0282179307A1F030938A023D
:1028500020938902E0918B02F0918C02309751F025
:1028600083E089833B832A830084F185E02DCE01B8
:10287000019609952396E2E00C947A1FA3E0B0E05C
:10288000E4E4F4E10C945E1F9C0180918702909136
:10289000880282179307A1F0309388022093870261
:1028A000E0918B02F0918C02309751F084E08983A3
:1028B0003B832A830084F185E02DCE0101960995A2
:1028C0002396E2E00C947A1FCF93DF93C09102012C
:1028D000D091030122960E94A815813081F4809145
:1028E000960287FF0CC0C0910001D0910101229691
:1028F0009EE180E0915028F4DF91CF91089596E019
:10290000F8CF29912115B1F38F5FF4CFCF93C82F62
:10291000811102C080E031C00E94A815813021F4ED
:102920008091960287FD0EC0809102019091030173
:10293000FC013296089621912C1709F1E817F90746
:10294000D1F7E8CF8C2F869586958695C03F10F7F6
:10295000E0910001F0910101E80FF11D228130E0CA
:10296000C77081E090E002C0880F991FCA95E2F716
:102970002823392381E0232B69F2CF91089581E048
:10298000FCCF9C01FC0132968FEF90E041914617FD
:1029900051F08F3F19F4411101C0892F9F5F96308C
:1029A000A9F78F3F09F40895280F311D87FD3A9547
:1029B000F901628308959C01FC013296285F3F4F24
:1029C0008191861302C0DF011E92E217F307C1F75F
:1029D0000895FC01862F869586958695603F60F464
:1029E000E80FF11D677021E030E001C0220F6A9509
:1029F000EAF78281822B82830895FC01862F8695D7
:102A000086958695603F80F4E80FF11D677081E040
:102A100090E09C0102C0220F331F6A95E2F7B901D2
:102A200060958281682362830895CF93C82F0E94A6
:102A3000A8156C2F813061F48091960287FF08C041
:102A400080910001909101010E94E914CF910895B5
:102A500080910201909103010E94C114F7CFCF939E
:102A6000C82F0E94A8156C2F813061F480919602C6
:102A700087FF08C080910001909101010E94FD1420
:102A8000CF91089580910201909103010E94DB147F
:102A9000F7CF0E94A815813079F48091960287FFC4
:102AA0000BC0E0910001F091010132968EE1DF014F
:102AB0001D928A95E9F70895E0910201F0910301D2
:102AC000329686E0F4CF08950E94631508958F5FD3
:102AD00080930701609104017091050180910601C6
:102AE000909107010E946415089583E08093070187
:102AF0006091040170910501809106019091070198
:102B00000E94641508950E946715089581E08093DE
:102B10000701609104017091050180910601909177
:102B200007010E94641508950E948615089591E09A
:102B3000811101C090E090930601609104017091B1
:102B4000050180910601909107010E946415089586
:102B500080910601089580930501609104017091B0
:102B6000050180910601909107010E946415089566
:102B70008091050108958093040160910401709192
:102B8000050180910601909107010E946415089546
:102B9000809104010895089508950E94CC15089528
:102BA000089508950E94CB150895CF930E94D015E3
:102BB0000E94D2100E94D115C0E08C2F0E940010FC
:102BC000892B31F4CF5FC430C1F780E0CF910895F5
:102BD00081E0FCCFCF93DF93EC010E945B168C1B4E
:102BE0009D0BDF91CF91089585B7806885BF85B72C
:102BF000806885BF08951F921FB61F9211248F937E
:102C00009F93AF93BF9380918D02811113C08091E8
:102C1000A8029091A902A091AA02B091AB0241969C
:102C2000A11DB11D8093A8029093A902A093AA02AE
:102C3000B093AB02BF91AF919F918F911F901FBE38
:102C40001F9018958091B002843031F10E94A20249
:102C500010928D0288E190E020E40FB6F894A895D8
:102C6000809360000FBE2093600083B7817F8460F3
:102C700083BF83B7816083BF7894889583B78E7F45
:102C800083BF0FB6F894A895809160008861809307
:102C90006000109260000FBE08950E947A060E94A4
:102CA000A902089582E084BD93E095BD9AEF97BD97
:102CB00080936E0008952FB7F8948091A8029091A8
:102CC000A902A091AA02B091AB022FBF08952FB71D
:102CD000F8946091A8027091A9028091AA02909143
:102CE000AB022FBF089578941F921FB61F92112434
:102CF0008F939F93AF93BF938091A8029091A90265
:102D0000A091AA02B091AB020196A11DB11D8093C2
:102D1000A8029093A902A093AA02B093AB02BF911C
:102D2000AF919F918F911F901FBE1F90189587E7BD
:102D300097E7909301088093000888E19AE00FB626
:102D4000F894A895809360000FBE90936000FFCF29
:102D500088E19AE00FB6F894A895809360000FBEC2
:102D600090936000FFCF0895282FCB01BA013091D6
:102D7000B0023430D9F42F702093E9002FEF309156
:102D8000E80035FD06C035ED3A95F1F700002A95CB
:102D9000B1F72091E80025FF09C040E050E00E9413
:102DA0002D198091E8008E778093E8000895BC018A
:102DB00043E050E082E00E94B4160895BC0140E276
:102DC00050E082E00E94B4160895CF93DF93D82F8D
:102DD000C92F0E94A81548E050E06D2F7C2F81E09C
:102DE0000E94B41688E0ED2FFC2FAEE8B2E001900F
:102DF0000D928A95E1F7DF91CF9108958091AF020E
:102E0000811109C00E94B61A0E94131B8091E20032
:102E100084608093E20008951092AF0208950E94AA
:102E2000861581E00E94971508956091AC0281E0BB
:102E3000611101C080E00E94751508959091B00263
:102E400081E0943009F080E06091AC020E9483152B
:102E5000089542E061EC81E00E94321A42E261ECA6
:102E600082E00E94321A42E061EC83E00E94321A52
:102E700042E160E885E00E94321A42E161E884E0C4
:102E80000E94321A9091B00281E0943009F080E003
:102E90006091AC020E94671508958091B20289305A
:102EA00009F44AC068F4823009F4A6C0833009F4FA
:102EB00075C0813011F188E091E00E948E1E089566
:102EC0008A3009F488C08B30B1F78091B102813229
:102ED00091F78091B5029091B602892B61F78091AC
:102EE000E800877F8093E8000E94661A8091B30211
:102EF0000E9497150E947A06DECF8091B102813A36
:102F0000D1F68091E800877F8093E8008091B50238
:102F10009091B602892B61F060E080E090E070E073
:102F20000E947D198091E8008B778093E800C3CFE1
:102F300068E08EE892E0F3CF8091B102813209F02F
:102F4000BACF8091B5029091B602029708F0B3CF44
:102F50008091E800877F8093E8008091E80082FFFD
:102F600018C09091F3008091F200029731F48091A3
:102F7000F100813011F0863021F48091F1000E943F
:102F8000AB158091E8008B778093E8000E94661A69
:102F900092CF8091B0028111E0CF08958091B1026B
:102FA000813A09F088CF8091B5029091B602892BC1
:102FB00009F081CF8091E800877F8093E8008091BD
:102FC000E80080FFFCCF0E94A8158093F10080915B
:102FD000E8008E77D9CF8091B102813209F06BCFB2
:102FE0008091E800877F8093E8000E94661A8091B4
:102FF000B4020E94BB155FCF8091B102813A09F003
:103000005ACF8091E800877F8093E8008091E800A4
:1030100080FFFCCF0E94C815D8CF82E090E090934B
:103020001B0180931A0188E091E00E94521E0895CE
:103030000895CF93DF9388E091E00E94FA1DEC01A0
:10304000209719F4DF91CF91089588E091E00E94D4
:10305000221E0E9418182197F3CFCF939091E90078
:10306000C091EC00209118013091190120FF15C08A
:103070009F70C795CC27C795C92B909109019F7068
:103080009093E9009091EB0090FF04C09091EE00C6
:1030900097FD05C0CF70C093E900CF9108959FEFD1
:1030A0002091E80025FD06C025ED2A95F1F70000E6
:1030B0009A95B1F78093F10088E091E00E94B31DEA
:1030C0008091E80080FFE6CF8091E8008E778093C2
:1030D000E800E0CF84B7877F84BF0FB6F894A89547
:1030E00080916000886180936000109260000FBE44
:1030F00080E890E00FB6F8948093610090936100AF
:103100000FBE0E94941508950E94B61A0E94131BC8
:10311000E2EEF0E080818460808378940E94991DC3
:10312000089583E291E00E94E91308958091B0022E
:10313000853031F48091B002853019F00E944D162F
:1031400008950E9422160E94D515811599F3809149
:10315000AE02811579F30E9417190E947A06EACF10
:103160000E94191888E091E00E94E11D08959A01DB
:103170004091B7025091B8020E94BF180895FC0117
:10318000D9018F2F992783309105C1F068F48130E0
:10319000910509F447C0029761F488E790E026E3BF
:1031A00031E02D933C93089581329105E1F08297AF
:1031B00049F180E090E020E030E0F3CFCF019927A3
:1031C000E13059F08230910559F0E2E3F1E0892BCA
:1031D00081F7849190E09F01E4CFEEE0F1E0F9CF38
:1031E000ECEFF0E0F6CF89E090E028E431E0611503
:1031F0007105B9F289E090E021E631E061307105B6
:1032000081F2D7CF84E490E02DE232E061157105C0
:1032100041F28DE690E020EC31E06130710509F477
:10322000C0CFC7CF82E190E02EEA31E0BACF80E193
:1032300089BD82E189BD09B400FEFDCF8091D8002F
:103240008F7D8093D8008091E00082608093E000C1
:103250008091E00081FDFCCF0895AF92BF92CF92A4
:10326000DF92EF92FF920F931F93CF936C018B012C
:103270007A010E94851AC82F811123C0E114F1043C
:1032800039F0F70180819181081B190BC80ED91EF6
:10329000A12CB12C01151105A1F08091E80085FD4C
:1032A00021C08091E8008E778093E800E114F1045A
:1032B00099F0F701808191818A0D9B1D9183808314
:1032C000C5E08C2FCF911F910F91FF90EF90DF9071
:1032D000CF90BF90AF9008950E94851A8115E9F2B2
:1032E000C82FEFCFF60181916F018093F10001505B
:1032F0001109FFEFAF1ABF0ACDCFFC019B018091EE
:10330000B7029091B8028617970718F0672B61F003
:10331000C90140E0009771F441110CC08091E800B0
:1033200082FF35C080E008958091E8008E77809319
:10333000E800EECF2091B0022115A9F12530A9F1C6
:103340002091E80023FD2DC02091E80022FDE6CF6A
:103350002091E80020FFDECF3091F3002091F200B1
:10336000009719F02830310558F041E02830310538
:1033700009F040E02091E8002E772093E800CACFC2
:1033800041914093F10001972F5F3F4FE9CF80912A
:10339000B002811541F0853041F08091E80083FF53
:1033A000BDCF81E0089582E0089583E00895FC0197
:1033B0009B018091B7029091B8028617970718F089
:1033C000672B61F0C90140E0009771F441110CC016
:1033D0008091E80082FF36C080E008958091E80087
:1033E0008E778093E800EECF2091B0022115B1F1E5
:1033F0002530B1F12091E80023FD2EC02091E80096
:1034000022FDE6CF2091E80020FFDECF3091F300CF
:103410002091F200009719F02830310558F041E072
:103420002830310509F040E02091E8002E77209304
:10343000E800CACF44914093F100319601972F5F85
:103440003F4FE8CF8091B002811541F0853041F0C7
:103450008091E80083FFBCCF81E0089582E0089569
:1034600083E00895982F973028F08F708093E900BB
:1034700081E008959093E900242F762F50E098176B
:1034800031F07091EC002091ED005091F00021FDA1
:1034900002C09F5FE8CF3091EB003E7F3093EB009E
:1034A0003091ED003D7F3093ED003091EB003160C5
:1034B0003093EB007093EC002093ED005093F000FC
:1034C0002091EE0027FDE5CF80E008958091B102C4
:1034D00087FF13C08091E80082FF06C08091E8005A
:1034E0008B778093E80008958091B0028111F2CF2C
:1034F00008958091B0028115D9F38091E80080FF92
:10350000F8CF8091E8008E77ECCF2091E4003091E5
:10351000E50095E6A9012091EC00822F817020FF43
:1035200006C08091E80080FF06C080E008952091E9
:10353000E80022FD1AC08091B002811589F0853023
:1035400089F08091EB0085FD0FC02091E40030915F
:10355000E50042175307F9F29A95E1F684E00895E1
:1035600082E0089583E0089581E008950E94251B7C
:103570000E942D1BE0EEF0E0808181608083E8ED09
:10358000F0E080818F77808319BCA7EDB0E08C914B
:103590008E7F8C9380818F7E80831092AF020895FE
:1035A0000F931F93CF93DF930E94251B0E942D1B27
:1035B000C8EDD0E088818F77888388818068888390
:1035C00088818F7D888319BC1092B0021092AC0262
:1035D0001092AE021092AD0200EE10E0F801808170
:1035E0008B7F808388818160888342E060E080E017
:1035F0000E94321AE1EEF0E080818E7F8083E2EE5D
:10360000F0E0808181608083808188608083F80120
:1036100080818E7F8083888180618883DF91CF91D4
:103620001F910F910895E8EDF0E080818F7E8083F7
:10363000E7EDF0E080818160808384E082BF81E0FB
:103640008093AF020E94D01A0895E8EDF0E08081E7
:103650008E7F80831092E20008951092DA0010921B
:10366000E10008951F920F920FB60F9211242F932D
:103670003F934F935F936F937F938F939F93AF93FA
:10368000BF93EF93FF938091E10082FF0BC0809185
:10369000E20082FF07C08091E1008B7F8093E10010
:1036A0000E94981D8091DA0080FF19C08091D80097
:1036B00080FF15C08091DA008E7F8093DA008091C0
:1036C000D90080FF94C080E189BD82E189BD09B441
:1036D00000FEFDCF81E08093B0020E94FE16809133
:1036E000E10080FF19C08091E20080FF15C0809149
:1036F000E2008E7F8093E2008091E20080618093FF
:10370000E2008091D80080628093D80019BC85E0E7
:103710008093B0020E9415178091E10084FF29C0B8
:103720008091E20084FF25C080E189BD82E189BDEE
:1037300009B400FEFDCF8091D8008F7D8093D80022
:103740008091E1008F7E8093E1008091E2008F7E86
:103750008093E2008091E20081608093E20080919A
:10376000AC02811509F449C084E08093B0020E9444
:103770001E178091E10083FF29C08091E20083FF42
:1037800025C08091E100877F8093E10082E08093F3
:10379000B0021092AC028091E1008E7F8093E10034
:1037A0008091E2008E7F8093E2008091E200806150
:1037B0008093E20042E060E080E00E94321A809153
:1037C000F00088608093F0000E940F17FF91EF9146
:1037D000BF91AF919F918F917F916F915F914F9129
:1037E0003F912F910F900FBE0F901F90189519BC0D
:1037F0001092B0020E940C1772CF8091E30087FFF5
:1038000002C083E0B2CF81E0B0CF1F920F920FB61B
:103810000F921124EF92FF920F931F932F933F93D8
:103820004F935F936F937F938F939F93AF93BF93C8
:10383000CF93EF93FF9309EE10E0F8018081C091E0
:10384000EC008F70C795CC27C795C82B108280EFEE
:10385000E82EF12CF7018081877F808378940E9485
:10386000501CF8011082F701808188608083CF703E
:10387000F801C083FF91EF91CF91BF91AF919F91DC
:103880008F917F916F915F914F913F912F911F91F8
:103890000F91FF90EF900F900FBE0F901F90189513
:1038A000AAE2B0E0E6E5FCE10C945C1F81EB92E05B
:1038B000FC0101962091F100208322E0893B9207D0
:1038C000B9F70E944D178091E80083FF38C08091BE
:1038D000B1029091B2029A3090F5E92FF0E0E85EE3
:1038E000FF4D0C94481F803889F0823841F5809153
:1038F000B5028F70873018F58093E9008091EB0056
:1039000085FB882780F91092E90006C08091AE02FD
:10391000880F9091AD02892B9091E800977F90934A
:10392000E8008093F1001092F1008091E8008E771A
:1039300023C0811116C08091B302813011F18091B2
:10394000E80083FF0AC08091E800877F8093E80049
:103950008091EB0080628093EB00AA96E4E00C94E7
:10396000781F823061F78091B302811589F010923F
:10397000E9008091E800877F8093E8000E94661A42
:10398000DECF81E0933009F080E08093AE02EFCF8C
:103990008091B5028F702FEF280F263080F680932C
:1039A000E9002091EB0020FFE2CF933031F48091C9
:1039B000EB0080628093EB00DACF9091EB00906196
:1039C0009093EB0021E030E0A90102C0440F551FA5
:1039D0008A95E2F74093EA001092EA008091EB00AA
:1039E0008860E8CF8111ABCF1091B3021F7780912F
:1039F000E3008078812B8093E3008091E800877F4B
:103A00008093E8000E94661A8091E80080FFFCCF56
:103A10008091E30080688093E30083E0111101C08E
:103A200082E08093B0028BCF8058823008F087CF3D
:103A30008091B3029091B4028C3D53E0950799F5C3
:103A400083E08A838AE289834FB7F894DE01139674
:103A500020E03EE051E2E32FF0E0509357008491E4
:103A600020FF03C082958F703F5F8F708A30C8F04F
:103A7000895C90E08D939D932F5F243161F74FBF58
:103A80008091E800877F8093E8006AE270E0CE01D1
:103A900001960E947D198091E8008B778093E80061
:103AA0004ECF805DE6CF6091B5027091B602AE0157
:103AB0004F5F5F4F0E94B7188C01892B09F43FCFED
:103AC0008091E800877F8093E800B80189819A811E
:103AD0000E94D719E0CF803809F031CF8091E800FB
:103AE000877F8093E8008091AC028093F1001DCF26
:103AF000811125CF9091B302923008F020CF8091B0
:103B0000E800877F8093E8009093AC020E94661AD9
:103B10008091AC02811531F084E08093B0020E9464
:103B200029170DCF8091E30087FDF6CF81E0F5CF17
:103B30000895CF938091B002811599F08091E900AA
:103B4000C091EC008F70C795CC27C795C82B1092F9
:103B5000E9008091E80083FD0E94501CCF70C09363
:103B6000E900CF910895FC018091B002843039F5CD
:103B700084899589A689B789892B8A2B8B2BF9F0A3
:103B800081818F708093E9009091F3008091F20021
:103B9000892B11F480E008959091E8008091E8006D
:103BA0008E778093E80095FDF5CF0E94851A8111EC
:103BB00007C09091E8009E779093E800089582E016
:103BC0000895FC018091B002843099F4848995892C
:103BD000A689B789892B8A2B8B2B59F081818F700D
:103BE0008093E9008091E80080FF03C0CF010E942C
:103BF000B31D0895FC018091B0028430D9F484890A
:103C00009589A689B789892B8A2B8B2B99F0868178
:103C10008F708093E9008091E80082FF0BC0909143
:103C2000F3008091F200892B41F48091E8008B77BA
:103C30008093E80080E090E008959091F3008091F7
:103C4000F2000895FC018091B002843019F08FEFEA
:103C50009FEF089584899589A689B789892B8A2B36
:103C60008B2BA9F386818F708093E9008091E80007
:103C700082FFEDCF9091F3008091F200892B79F0D3
:103C80008091F10090E03091F3002091F200232B1D
:103C900029F42091E8002B772093E80008958FEF16
:103CA0009FEFF1CFA8E0B0E0E8E5FEE10C945C1FE7
:103CB0008C018091B002843059F5F801848995898E
:103CC000A689B789892B8A2B8B2B11F183858F705D
:103CD0008093E90088E0EDE2F1E0DE0111960190C9
:103CE0000D928A95E1F740E050E068E070E0CE0187
:103CF00001960E942D1940E050E062E070E0C8019A
:103D000042960E942D198091E8008E778093E800FA
:103D10002896E4E00C94781F08950895CF93DF93DC
:103D2000EC018091E80083FF13C028818091B502E7
:103D30009091B6022817190659F48091B202823286
:103D400009F484C040F4803209F44DC08132B1F0EE
:103D5000DF91CF9108958332D9F78091B1028132FA
:103D6000B9F78091E800877F8093E8000E94661A87
:103D70006091B302CE010E948D1EEACF8091B10204
:103D8000813A31F78091E800877F8093E800809145
:103D9000E80080FFFCCF8C899D89AE89BF89809324
:103DA000F100492F5A2F6B2F77274093F100AD0177
:103DB000662777274093F1008B2F9927AA27BB27E7
:103DC0008093F100888D8093F100898D8093F100BC
:103DD0008A8D8093F1008091E8008E778093E800CF
:103DE0000E94661AB5CF8091B102813209F0B0CF3E
:103DF0008091E800877F8093E8008091E80082FF4F
:103E000020C03091F1002091F1009091F10080915B
:103E1000F1003C8B2D8B9E8B8F8B8091F100888FD6
:103E20008091F100898F8091F1008A8F8091E80064
:103E30008B778093E8000E94661ACE010E948C1E48
:103E400087CF8091B0028111D8CF82CF8091B1020B
:103E5000813209F07DCF8091E800877F8093E80070
:103E60000E94661A8091B3029091B402998B888B5C
:103E7000CE010E948C1E6CCF992778E0880F991F85
:103E8000961708F0961B881F7A95C9F780950895B4
:103E9000EE0FFF1F0590F491E02D09942F923F92B1
:103EA0004F925F926F927F928F929F92AF92BF924A
:103EB000CF92DF92EF92FF920F931F93CF93DF93F6
:103EC000CDB7DEB7CA1BDB0B0FB6F894DEBF0FBE53
:103ED000CDBF09942A88398848885F846E847D84A0
:103EE0008C849B84AA84B984C884DF80EE80FD80A2
:103EF0000C811B81AA81B981CE0FD11D0FB6F89418
:103F0000DEBF0FBECDBFED010895FB01DC0104C093
:103F10008D910190801921F441505040C8F7881BC1
:103F2000990B0895FB01DC0102C001900D924150F4
:103F30005040D8F70895F999FECF92BD81BDF89A07
:103F4000992780B50895A8E1B0E042E050E00C94D4
:103F5000DF1FDC01A40FB51F4150504048F0CB01DA
:103F6000840F951F2E910E94BA1F41505040D0F7E8
:103F70000895262FF999FECF92BD81BDF89A019739
:103F800000B4021639F01FBA20BD0FB6F894FA9AA1
:103F9000F99A0FBE08950396272F0E94BA1F0E9418
:103FA000B91F252F0E94BA1F242F0C94BA1F019607
:103FB000272F0E94BA1F0C94B91FDC01CB01FC0112
:103FC000F999FECF06C0F2BDE1BDF89A319600B472
:103FD0000D9241505040B8F70895F894FFCFC012A9
:103FE0003113C81292129612CC129A12D012DC120D
:103FF000A6122A13AA12E012AE12E4120913B21288
:10400000E8121013B812EE12F6129E12D412A21277
:10401000D812BC12F2120013191328138C12C412F6
:104020003813C413CA13B313BE13D013D613DC133F
:10403000731C991C9F1C991C9F1CF21C141D9F1C17
:044040006B1D781D5F
:104044003C025C0200000100028410000001051023
:1040540000000183080000010000000000000000CF
:10406400000000B815E516DE16B316D716A1200019
:104074000000000200E200E900EA00B500B600B763
:1040840000CD008301CC008A019201940121022316
:104094000224022502260227022A02B300B4006F7A
:1040A4000070009F01CB019F02A002E200E900EA38
:1040B40000B500B600B700CD008301CC008A0192A0
:1040C4000194012102230224022502260227022A46
:1040D40002B300B4006F0070009F01CB019F02A0E7
:1040E40002946697C6343536323331F4F5F6F70068
:00000001FF
